:1000000031C036C035C034C033C032C031C030C05A
:100010002FC02EC02DC02CC02BC02AC029C062E02A
:100020009304007AE093040061E093040079E09384
:10003000040074E093040078E093040064E0930407
:100040000078E093040074E093040079E0930400E6
:1000500061E09304007AE093040062F0490200300A
:100060000000000011241FBECFEDCDBF2ED1BDC1B9
:10007000C7CF611571058105910569F020E030E079
:10008000B59A2F5F3F4F28353105D1F7615071097F
:1000900081099109EECF08954F925F926F927F92FE
:1000A0008F929F92AF92BF92CF92DF92EF92FF9288
:1000B0000F931F93CF93DF93CDB7DD27C450CDBFF0
:1000C00049015A01270138012E0D3F1D401F511FC4
:1000D0006AD1C12CD12C7601C216D306E406F506EE
:1000E000D1F088B38C6088BBC501B40129833A8301
:1000F0004B835C83BEDF88B3837F88BBC301B201BF
:10010000B8DF8FEFC81AD80AE80AF80A5C814B8179
:100110003A812981E1CFCC5FCDBFDF91CF911F9193
:100120000F91FF90EF90DF90CF90BF90AF909F9096
:100130008F907F906F905F904F900895EF92FF9215
:100140000F931F939C0165E070E01CD1FC01E25EFF
:10015000FF4FE491E236C1F487E48DBDC90165E04B
:1001600070E010D1815E9F4FFC0165917591859182
:1001700094911BE2E12EFF24F39400E010E02CE2C6
:1001800031E040E050E09BC0EA37C1F488E48DBD27
:10019000C90165E070E0F6D0815E9F4FFC0165917A
:1001A0007591859194911CE6E12EFF24F39400E073
:1001B00010E02CE631E040E050E081C0E136C1F4CF
:1001C00089E48DBDC90165E070E0DCD0815E9F4FA0
:1001D000FC0165917591859194911EECE12EFF24AF
:1001E000F39400E010E02EEC31E040E050E067C016
:1001F000E937C1F48AE48DBDC90165E070E0C2D081
:10020000815E9F4FFC01659175918591949110E7F6
:10021000E12E12E0F12E00E010E02FE632E040E0A7
:1002200050E04DC0E437C1F48BE48DBDC90165E0F9
:1002300070E0A8D0815E9F4FFC016591759185911A
:10024000949115EBE12E13E0F12E00E010E024EB89
:1002500033E040E050E033C0E837C1F48BE48DBDBB
:10026000C90165E070E08ED0815E9F4FFC01659111
:1002700075918591949119EFE12E14E0F12E00E033
:1002800010E028EF34E040E050E019C0E436C1F45B
:100290008CE48DBDC90165E070E074D0815E9F4F34
:1002A000FC01659175918591949113E8E12E17E019
:1002B000F12E00E010E022E837E040E050E0ECDE14
:1002C0001F910F91FF90EF9008950F931F93CF937D
:1002D000DF938091600090916100892BD1F481E0DF
:1002E00090E0909361008093600083B7887F83BF24
:1002F00080B7807F80BF85B7806285BF85B780610A
:1003000085BF60E177E280E090E0B3DE18BA17BA0B
:100310008895109261001092600019BE8FE087BB33
:1003200018BA82E48ABD84E083BF8DE489BD89E97F
:1003300080BFCEE1D0E000E010E0FE018491259680
:10034000803329F0C801FADE0F5F1F4FF6CF83B765
:10035000887F83BF80B7807F80BF85B7806285BF7D
:1003600085B7806185BF60E177E280E090E081DE63
:1003700018BA17BA889580E090E0DF91CF911F916D
:100380000F9108950024552704C0080E591F880FA7
:10039000991F009729F076956795B8F37105B9F71D
:1003A000802D952F0895A1E21A2EAA1BBB1BFD01DB
:1003B0000DC0AA1FBB1FEE1FFF1FA217B307E40744
:1003C000F50720F0A21BB30BE40BF50B661F771F9C
:1003D000881F991F1A9469F760957095809590957C
:0E03E0009B01AC01BD01CF010895F894FFCF41
:00000001FF
